{"abi":[{"type":"constructor","inputs":[{"name":"initialSupply","type":"uint256","internalType":"uint256"}],"stateMutability":"nonpayable"},{"type":"function","name":"_balanceOf","inputs":[{"name":"addr","type":"address","internalType":"address"}],"outputs":[{"name":"","type":"uint256","internalType":"uint256"}],"stateMutability":"view"},{"type":"function","name":"allowance","inputs":[{"name":"","type":"address","internalType":"address"},{"name":"","type":"address","internalType":"address"}],"outputs":[{"name":"","type":"uint256","internalType":"uint256"}],"stateMutability":"view"},{"type":"function","name":"approve","inputs":[{"name":"spender","type":"address","internalType":"address"},{"name":"value","type":"uint256","internalType":"uint256"}],"outputs":[{"name":"","type":"bool","internalType":"bool"}],"stateMutability":"nonpayable"},{"type":"function","name":"balanceOf","inputs":[{"name":"","type":"address","internalType":"address"}],"outputs":[{"name":"","type":"uint256","internalType":"uint256"}],"stateMutability":"view"},{"type":"function","name":"decimals","inputs":[],"outputs":[{"name":"","type":"uint8","internalType":"uint8"}],"stateMutability":"view"},{"type":"function","name":"deposit","inputs":[],"outputs":[],"stateMutability":"payable"},{"type":"function","name":"mint","inputs":[{"name":"to","type":"address","internalType":"address"},{"name":"amount","type":"uint256","internalType":"uint256"}],"outputs":[],"stateMutability":"payable"},{"type":"function","name":"name","inputs":[],"outputs":[{"name":"","type":"string","internalType":"string"}],"stateMutability":"view"},{"type":"function","name":"symbol","inputs":[],"outputs":[{"name":"","type":"string","internalType":"string"}],"stateMutability":"view"},{"type":"function","name":"totalSupply","inputs":[],"outputs":[{"name":"","type":"uint256","internalType":"uint256"}],"stateMutability":"view"},{"type":"function","name":"transfer","inputs":[{"name":"to","type":"address","internalType":"address"},{"name":"value","type":"uint256","internalType":"uint256"}],"outputs":[{"name":"","type":"bool","internalType":"bool"}],"stateMutability":"nonpayable"},{"type":"function","name":"transferFrom","inputs":[{"name":"from","type":"address","internalType":"address"},{"name":"to","type":"address","internalType":"address"},{"name":"value","type":"uint256","internalType":"uint256"}],"outputs":[{"name":"","type":"bool","internalType":"bool"}],"stateMutability":"nonpayable"},{"type":"event","name":"Approval","inputs":[{"name":"owner","type":"address","indexed":true,"internalType":"address"},{"name":"spender","type":"address","indexed":true,"internalType":"address"},{"name":"value","type":"uint256","indexed":false,"internalType":"uint256"}],"anonymous":false},{"type":"event","name":"Transfer","inputs":[{"name":"from","type":"address","indexed":true,"internalType":"address"},{"name":"to","type":"address","indexed":true,"internalType":"address"},{"name":"value","type":"uint256","indexed":false,"internalType":"uint256"}],"anonymous":false}],"bytecode":{"object":"0x60806040526040518060400160405280600b81526020017f426173696320546f6b656e0000000000000000000000000000000000000000008152505f908161004791906103ef565b506040518060400160405280600581526020017f42415349430000000000000000000000000000000000000000000000000000008152506001908161008c91906103ef565b50601260025f6101000a81548160ff021916908360ff1602179055503480156100b3575f5ffd5b5060405161182738038061182783398181016040528101906100d591906104ec565b60025f9054906101000a900460ff16600a6100f0919061067f565b816100fb91906106c9565b60038190555060035460045f3373ffffffffffffffffffffffffffffffffffffffff1673ffffffffffffffffffffffffffffffffffffffff1681526020019081526020015f20819055503373ffffffffffffffffffffffffffffffffffffffff165f73ffffffffffffffffffffffffffffffffffffffff167fddf252ad1be2c89b69c2b068fc378daa952ba7f163c4a11628f55a4df523b3ef6003546040516101a49190610719565b60405180910390a350610732565b5f81519050919050565b7f4e487b71000000000000000000000000000000000000000000000000000000005f52604160045260245ffd5b7f4e487b71000000000000000000000000000000000000000000000000000000005f52602260045260245ffd5b5f600282049050600182168061022d57607f821691505b6020821081036102405761023f6101e9565b5b50919050565b5f819050815f5260205f209050919050565b5f6020601f8301049050919050565b5f82821b905092915050565b5f600883026102a27fffffffffffffffffffffffffffffffffffffffffffffffffffffffffffffffff82610267565b6102ac8683610267565b95508019841693508086168417925050509392505050565b5f819050919050565b5f819050919050565b5f6102f06102eb6102e6846102c4565b6102cd565b6102c4565b9050919050565b5f819050919050565b610309836102d6565b61031d610315826102f7565b848454610273565b825550505050565b5f5f905090565b610334610325565b61033f818484610300565b505050565b5b81811015610362576103575f8261032c565b600181019050610345565b5050565b601f8211156103a75761037881610246565b61038184610258565b81016020851015610390578190505b6103a461039c85610258565b830182610344565b50505b505050565b5f82821c905092915050565b5f6103c75f19846008026103ac565b1980831691505092915050565b5f6103df83836103b8565b9150826002028217905092915050565b6103f8826101b2565b67ffffffffffffffff811115610411576104106101bc565b5b61041b8254610216565b610426828285610366565b5f60209050601f831160018114610457575f8415610445578287015190505b61044f85826103d4565b8655506104b6565b601f19841661046586610246565b5f5b8281101561048c57848901518255600182019150602085019450602081019050610467565b868310156104a957848901516104a5601f8916826103b8565b8355505b6001600288020188555050505b505050505050565b5f5ffd5b6104cb816102c4565b81146104d5575f5ffd5b50565b5f815190506104e6816104c2565b92915050565b5f60208284031215610501576105006104be565b5b5f61050e848285016104d8565b91505092915050565b7f4e487b71000000000000000000000000000000000000000000000000000000005f52601160045260245ffd5b5f8160011c9050919050565b5f5f8291508390505b60018511156105995780860481111561057557610574610517565b5b60018516156105845780820291505b808102905061059285610544565b9450610559565b94509492505050565b5f826105b1576001905061066c565b816105be575f905061066c565b81600181146105d457600281146105de5761060d565b600191505061066c565b60ff8411156105f0576105ef610517565b5b8360020a91508482111561060757610606610517565b5b5061066c565b5060208310610133831016604e8410600b84101617156106425782820a90508381111561063d5761063c610517565b5b61066c565b61064f8484846001610550565b9250905081840481111561066657610665610517565b5b81810290505b9392505050565b5f60ff82169050919050565b5f610689826102c4565b915061069483610673565b92506106c17fffffffffffffffffffffffffffffffffffffffffffffffffffffffffffffffff84846105a2565b905092915050565b5f6106d3826102c4565b91506106de836102c4565b92508282026106ec816102c4565b9150828204841483151761070357610702610517565b5b5092915050565b610713816102c4565b82525050565b5f60208201905061072c5f83018461070a565b92915050565b6110e88061073f5f395ff3fe6080604052600436106100a6575f3560e01c806370a082311161006357806370a08231146101bc57806395d89b41146101f8578063a9059cbb14610222578063cca3e8321461025e578063d0e30db01461029a578063dd62ed3e146102a4576100a6565b806306fdde03146100aa578063095ea7b3146100d457806318160ddd1461011057806323b872dd1461013a578063313ce5671461017657806340c10f19146101a0575b5f5ffd5b3480156100b5575f5ffd5b506100be6102e0565b6040516100cb9190610c53565b60405180910390f35b3480156100df575f5ffd5b506100fa60048036038101906100f59190610d04565b61036b565b6040516101079190610d5c565b60405180910390f35b34801561011b575f5ffd5b506101246104c6565b6040516101319190610d84565b60405180910390f35b348015610145575f5ffd5b50610160600480360381019061015b9190610d9d565b6104cc565b60405161016d9190610d5c565b60405180910390f35b348015610181575f5ffd5b5061018a61081a565b6040516101979190610e08565b60405180910390f35b6101ba60048036038101906101b59190610d04565b61082c565b005b3480156101c7575f5ffd5b506101e260048036038101906101dd9190610e21565b610883565b6040516101ef9190610d84565b60405180910390f35b348015610203575f5ffd5b5061020c610898565b6040516102199190610c53565b60405180910390f35b34801561022d575f5ffd5b5061024860048036038101906102439190610d04565b610924565b6040516102559190610d5c565b60405180910390f35b348015610269575f5ffd5b50610284600480360381019061027f9190610e21565b610b28565b6040516102919190610d84565b60405180910390f35b6102a2610b6e565b005b3480156102af575f5ffd5b506102ca60048036038101906102c59190610e4c565b610bc3565b6040516102d79190610d84565b60405180910390f35b5f80546102ec90610eb7565b80601f016020809104026020016040519081016040528092919081815260200182805461031890610eb7565b80156103635780601f1061033a57610100808354040283529160200191610363565b820191905f5260205f20905b81548152906001019060200180831161034657829003601f168201915b505050505081565b5f5f73ffffffffffffffffffffffffffffffffffffffff168373ffffffffffffffffffffffffffffffffffffffff16036103da576040517f08c379a00000000000000000000000000000000000000000000000000000000081526004016103d190610f31565b60405180910390fd5b8160055f3373ffffffffffffffffffffffffffffffffffffffff1673ffffffffffffffffffffffffffffffffffffffff1681526020019081526020015f205f8573ffffffffffffffffffffffffffffffffffffffff1673ffffffffffffffffffffffffffffffffffffffff1681526020019081526020015f20819055508273ffffffffffffffffffffffffffffffffffffffff163373ffffffffffffffffffffffffffffffffffffffff167f8c5be1e5ebec7d5bd14f71427d1e84f3dd0314c0f7b2291e5b200ac8c7c3b925846040516104b49190610d84565b60405180910390a36001905092915050565b60035481565b5f5f73ffffffffffffffffffffffffffffffffffffffff168373ffffffffffffffffffffffffffffffffffffffff160361053b576040517f08c379a000000000000000000000000000000000000000000000000000000000815260040161053290610f31565b60405180910390fd5b8160045f8673ffffffffffffffffffffffffffffffffffffffff1673ffffffffffffffffffffffffffffffffffffffff1681526020019081526020015f205410156105bb576040517f08c379a00000000000000000000000000000000000000000000000000000000081526004016105b290610f99565b60405180910390fd5b8160055f8673ffffffffffffffffffffffffffffffffffffffff1673ffffffffffffffffffffffffffffffffffffffff1681526020019081526020015f205f3373ffffffffffffffffffffffffffffffffffffffff1673ffffffffffffffffffffffffffffffffffffffff1681526020019081526020015f20541015610676576040517f08c379a000000000000000000000000000000000000000000000000000000000815260040161066d90611001565b60405180910390fd5b8160045f8673ffffffffffffffffffffffffffffffffffffffff1673ffffffffffffffffffffffffffffffffffffffff1681526020019081526020015f205f8282546106c2919061104c565b925050819055508160045f8573ffffffffffffffffffffffffffffffffffffffff1673ffffffffffffffffffffffffffffffffffffffff1681526020019081526020015f205f828254610715919061107f565b925050819055508160055f8673ffffffffffffffffffffffffffffffffffffffff1673ffffffffffffffffffffffffffffffffffffffff1681526020019081526020015f205f3373ffffffffffffffffffffffffffffffffffffffff1673ffffffffffffffffffffffffffffffffffffffff1681526020019081526020015f205f8282546107a3919061104c565b925050819055508273ffffffffffffffffffffffffffffffffffffffff168473ffffffffffffffffffffffffffffffffffffffff167fddf252ad1be2c89b69c2b068fc378daa952ba7f163c4a11628f55a4df523b3ef846040516108079190610d84565b60405180910390a3600190509392505050565b60025f9054906101000a900460ff1681565b8060045f8473ffffffffffffffffffffffffffffffffffffffff1673ffffffffffffffffffffffffffffffffffffffff1681526020019081526020015f205f828254610878919061107f565b925050819055505050565b6004602052805f5260405f205f915090505481565b600180546108a590610eb7565b80601f01602080910402602001604051908101604052809291908181526020018280546108d190610eb7565b801561091c5780601f106108f35761010080835404028352916020019161091c565b820191905f5260205f20905b8154815290600101906020018083116108ff57829003601f168201915b505050505081565b5f5f73ffffffffffffffffffffffffffffffffffffffff168373ffffffffffffffffffffffffffffffffffffffff1603610993576040517f08c379a000000000000000000000000000000000000000000000000000000000815260040161098a90610f31565b60405180910390fd5b8160045f3373ffffffffffffffffffffffffffffffffffffffff1673ffffffffffffffffffffffffffffffffffffffff1681526020019081526020015f20541015610a13576040517f08c379a0000000000000000000000000000000000000000000000000000000008152600401610a0a90610f99565b60405180910390fd5b8160045f3373ffffffffffffffffffffffffffffffffffffffff1673ffffffffffffffffffffffffffffffffffffffff1681526020019081526020015f205f828254610a5f919061104c565b925050819055508160045f8573ffffffffffffffffffffffffffffffffffffffff1673ffffffffffffffffffffffffffffffffffffffff1681526020019081526020015f205f828254610ab2919061107f565b925050819055508273ffffffffffffffffffffffffffffffffffffffff163373ffffffffffffffffffffffffffffffffffffffff167fddf252ad1be2c89b69c2b068fc378daa952ba7f163c4a11628f55a4df523b3ef84604051610b169190610d84565b60405180910390a36001905092915050565b5f60045f8373ffffffffffffffffffffffffffffffffffffffff1673ffffffffffffffffffffffffffffffffffffffff1681526020019081526020015f20549050919050565b3460045f3373ffffffffffffffffffffffffffffffffffffffff1673ffffffffffffffffffffffffffffffffffffffff1681526020019081526020015f205f828254610bba919061107f565b92505081905550565b6005602052815f5260405f20602052805f5260405f205f91509150505481565b5f81519050919050565b5f82825260208201905092915050565b8281835e5f83830152505050565b5f601f19601f8301169050919050565b5f610c2582610be3565b610c2f8185610bed565b9350610c3f818560208601610bfd565b610c4881610c0b565b840191505092915050565b5f6020820190508181035f830152610c6b8184610c1b565b905092915050565b5f5ffd5b5f73ffffffffffffffffffffffffffffffffffffffff82169050919050565b5f610ca082610c77565b9050919050565b610cb081610c96565b8114610cba575f5ffd5b50565b5f81359050610ccb81610ca7565b92915050565b5f819050919050565b610ce381610cd1565b8114610ced575f5ffd5b50565b5f81359050610cfe81610cda565b92915050565b5f5f60408385031215610d1a57610d19610c73565b5b5f610d2785828601610cbd565b9250506020610d3885828601610cf0565b9150509250929050565b5f8115159050919050565b610d5681610d42565b82525050565b5f602082019050610d6f5f830184610d4d565b92915050565b610d7e81610cd1565b82525050565b5f602082019050610d975f830184610d75565b92915050565b5f5f5f60608486031215610db457610db3610c73565b5b5f610dc186828701610cbd565b9350506020610dd286828701610cbd565b9250506040610de386828701610cf0565b9150509250925092565b5f60ff82169050919050565b610e0281610ded565b82525050565b5f602082019050610e1b5f830184610df9565b92915050565b5f60208284031215610e3657610e35610c73565b5b5f610e4384828501610cbd565b91505092915050565b5f5f60408385031215610e6257610e61610c73565b5b5f610e6f85828601610cbd565b9250506020610e8085828601610cbd565b9150509250929050565b7f4e487b71000000000000000000000000000000000000000000000000000000005f52602260045260245ffd5b5f6002820490506001821680610ece57607f821691505b602082108103610ee157610ee0610e8a565b5b50919050565b7f496e76616c6964206164647265737300000000000000000000000000000000005f82015250565b5f610f1b600f83610bed565b9150610f2682610ee7565b602082019050919050565b5f6020820190508181035f830152610f4881610f0f565b9050919050565b7f496e73756666696369656e742062616c616e63650000000000000000000000005f82015250565b5f610f83601483610bed565b9150610f8e82610f4f565b602082019050919050565b5f6020820190508181035f830152610fb081610f77565b9050919050565b7f416c6c6f77616e636520657863656564656400000000000000000000000000005f82015250565b5f610feb601283610bed565b9150610ff682610fb7565b602082019050919050565b5f6020820190508181035f83015261101881610fdf565b9050919050565b7f4e487b71000000000000000000000000000000000000000000000000000000005f52601160045260245ffd5b5f61105682610cd1565b915061106183610cd1565b92508282039050818111156110795761107861101f565b5b92915050565b5f61108982610cd1565b915061109483610cd1565b92508282019050808211156110ac576110ab61101f565b5b9291505056fea2646970667358221220fe4189ad779cb355807fa2d9b09e443e43a0b274fed263634b15f6cd5056414e64736f6c634300081e0033","linkReferences":{}},"methodIdentifiers":{"_balanceOf(address)":"cca3e832","allowance(address,address)":"dd62ed3e","approve(address,uint256)":"095ea7b3","balanceOf(address)":"70a08231","decimals()":"313ce567","deposit()":"d0e30db0","mint(address,uint256)":"40c10f19","name()":"06fdde03","symbol()":"95d89b41","totalSupply()":"18160ddd","transfer(address,uint256)":"a9059cbb","transferFrom(address,address,uint256)":"23b872dd"},"id":0}